:020000020000FC
:0C0000000C945C000C9470040C947204CE
:040028000C947804B8
:040038000C947604AA
:040040000C947404A4
:040054000C947C0488
:040074000C947A046A
:1000A000039F250D9949411F010911C161856171A6
:1000B00039FD73FF0E12121300E10EBF0FEF0DBFDB
:1000C00008E90ABB00E80BBB00EE07BB0FEF04BB5F
:1000D00004E010E8012B10E4012B01BB0FEF02B983
:1000E0000EEF0093610003E009BF0FE000936A0088
:1000F00005E003BF08E000BF05E00EBD0FEF10E014
:100100000DBD1CBD05E005BD03E000938A0005E4BC
:1001100007BF04E000937D0000E607B90FED06B9C4
:100120006068789456FD0E94850257FD0E94DE02A9
:1001300055FD0E94EE0254FD0E94340353FD0E94BF
:100140002E0452FD0E94C50151FD0E94EB0150FD9D
:100150000E944C0267FD0E94D30166FD0E94F800D8
:1001600065FD0E94610263FD0E944B0464FD0E94D4
:100170005D0462FD0E94DF0161FD0E94160360FDC7
:100180000E94C4000C9492006E7FB1E0AAE20C9130
:100190000C3141F0043151F00C3061F0093171F053
:1001A0000C94E0000E948C010C94E0000E949E01DF
:1001B0000C94E0000E94E1000C94E0000E94B00169
:1001C000089576FD0C94E6000C94ED0000E0009399
:1001D0002A010E94F0000E94F600089570640895BC
:1001E0007F7B089570620895706108957860089526
:1001F0000FEF10EF00938900109388006F7B72FF60
:100200000C943801B1E0AEE10C9103950F3F11F071
:100210000C940C01526000E000931E01B1E0A1E2D9
:100220000C910F3F29F00395009321010C942C01B0
:1002300000EC00932101B1E0A2E20C910F3F29F004
:100240000395009322010C942C01516000EC009363
:10025000210109EF00932201B1E0AFE10C91039578
:100260000F3F11F00C943601606200E000931F0113
:10027000B1E0A5E20C9103950F3F11F00C944B01F6
:1002800000E000932501B1E0A4E20C9103950F3F3B
:1002900051F00C944F01009325010C945A010093E6
:1002A00024010C945A010CEF0093240100E0009308
:1002B00025016860B1E0ACE10C9103950F3F21F09E
:1002C00000931C010C94730100E000931C01B1E049
:1002D000ABE10C9103950F3F11F00C94710162603A
:1002E00000EE00931B01B1E0A8E20C9103950F3FD3
:1002F00011F00C947D01646000E000932801B1E0EE
:10030000ABE20C9103950E3F10F40C9489016160EF
:1003100000E000932B01089572FF08950E94F200FF
:1003200000E000932A01B1E0ADE10C9103950F319B
:1003300008F00EE100931D015460089572FF0895C6
:100340000E94F20000E000932A01B1E0ADE10C91BF
:100350000A950A307CF70AE000931D015460089565
:1003600000E000932A0172FF0C94B8010C94BD01C7
:1003700074600E94F4000C94C4017B7F0E94F6001C
:10038000189819980C94C4010895E1990C94D2011D
:1003900000E00FBB0EBBB1E0ADE10C910DBBE29AEA
:1003A000E19A5B7F0895E1990C94DE0100E00FBBB8
:1003B0000EBBE09A0DB300931D016F7708956B7F1C
:1003C000B1E0A0E032E0A30F0C91083F10F40C94D0
:1003D000EA017064089572FF08955D7FB1E0ADE1B8
:1003E0000C910F3180F40A3070F0B1E0A0E01C9164
:1003F000B1E0A0E031E0A30F3C91163C20F41033B3
:1004000010F00C9404027064103848F01058101763
:1004100030F00C940B021898199A0C941102189A47
:1004200019980E9416020E9431020895B1E0A0E0DE
:100430000C91B1E0A0E032E0A30F1C91011738F05D
:100440000C94220219990C942C020C942F021899E6
:100450000C942C020C942F02979A0C9430029798CB
:100460000895B1E0A0E00C91B1E0A0E031E0A30F6D
:100470001C91011738F00C943D0219990C94470215
:100480000C944A0218990C9447020C944A02969ACA
:100490000C944B029698089572FF08955E7FB1E028
:1004A000A3E20C91003029F00695083011F00C946D
:1004B0005A0200E80093230113B11F70102B13B9E7
:1004C000089572FF08956F7DF1E0E0E20081B1E0F0
:1004D000A0E028E0A20FA00F1C91107C129521B182
:1004E000237F212B23B920B12F73102F1295110FC9
:1004F000110F212B209362000395043010F40C940B
:10050000820200E00093200108955F7B00EF02BFAC
:1005100076FD0C94950275FD0C94A10274FD0C946B
:10052000AE0273FD0C94C602089577FF0C949A02F4
:100530000C949F020CEF00932901706808957F7757
:10054000089577FF0C94A6020C94AB020CEF009375
:100550002901706808957F7D7F77089577FF0C9457
:10056000B3020C94B8020CEF00932901706808954F
:10057000B1E0A9E20C910C3F11F00C94C3020EEF14
:100580000093290108957F777F7E089577FF0C946B
:10059000CB020C94D0020EEF0093290170680895ED
:1005A000B1E0A9E20C910E3F11F00C94DB020CEFCC
:1005B0000093290108957F77777F08955F77B1E0F1
:1005C000A9E20C9104BD77FF1895959B0C94EA0263
:1005D0000C94EC02959A18959598189509B70E7F8A
:1005E00009BF5F7D00E00BBB09B30E94060308E072
:1005F0000BBB09B30E94060300E10BBB09B30E94C9
:10060000060308E10BBB09B30C940D03102F177000
:10061000103009F408951F911F9100932A0100E8FA
:100620000BBB09B711E0012B09BF08956D7F76FD63
:100630000C941D037E7F0C94250370FF0C94220301
:100640000C94250371600C9433037E7FB1E0AAE122
:100650000C91013028F4039500931A010C94330394
:1006600000E000931A0108955F7E0FEF10EF0DBDBB
:100670001CBDB1E0A9E12C912395283010F40C9415
:100680005C0320E00E947203B1E0AAE10C9170FDCE
:100690000C945A03003011F0013041F00E94BE0367
:1006A0000E94A9030E9499030C945C030E94860394
:1006B0000C945C030E94D80320931901B1E0A0E1DF
:1006C000A20F0C91F0E0E0EAE00F0491213021F05C
:1006D000243011F00C946D030E7F2295220F28BB5D
:1006E00005BB0895F0E0E0EA03E1009310010093F8
:1006F0001101009312010093130100931401009360
:10070000150100931601009317010895B1E0A7E2C7
:100710000C910E94E703102F1F7010931201007FAD
:1007200002950093110100E000931301009314015E
:10073000089572FF0895B1E0ADE10C910E94E703C6
:10074000102F1F7010931401007F02950093130166
:100750000895B1E0A0E00C91003820F411E110936D
:100760001501009500580E94E703102F1F70109389
:100770001701007F0295009316010895B1E0A0E0F3
:1007800002E0A00F0C91003868F000580E94E703C7
:10079000102F1F7010931101007F0295009310011C
:1007A0000C94D70301E10093100100931101089507
:1007B0000EE00093100102E1009311010093120179
:1007C00000E00093130102E1009314010895043640
:1007D000D8F510E00A3014F40C942A040A5013954A
:1007E0000A3014F40C942A040A5013950A3014F4B5
:1007F0000C942A040A5013950A3014F40C942A0419
:100800000A5013950A3014F40C942A040A501395D4
:100810000A3014F40C942A040A5013950A3014F484
:100820000C942A040A5013950A3014F40C942A04E8
:100830000A5013950A3014F40C942A040A501395A4
:100840001A3014F40C942A0419E0012F0295010FB8
:100850000C942D040295010F02950895577FB1E085
:10086000A8E11C91F1E0E0E0E10F04B105B10083E3
:100870001395103114F40C943E0410E010931801F9
:10088000110F00B1017E102B1093620000E607B932
:100890000EED06B90895677FB1E0A6E20C9116E06F
:1008A000019F002D003610F40C94570403E60093CA
:1008B000270100E00093260108956F7E09B70D7FA0
:1008C00009BFB1E0A6E20C910F3F29F00C94680437
:1008D00003950093260109B712E0012B09BF089583
:1008E000506218956061189550641895506118957C
:0C08F000506818956064189558601895C1
:00000001FF
