:020000020000FC
:0C0000000C945C000C94F4040C94F804C4
:040028000C9404052B
:040038000C9400051F
:040040000C94FC041C
:040054000C940C05F7
:040074000C940805DB
:1000A000039F250D9949411F010911C161856171A6
:1000B00039FD73FF0E12121300E10EBF0FEF0DBFDB
:1000C00008E90ABB00E80BBB00EE07BB0FEF04BB5F
:1000D00004E010E8012B10E4012B01BB0FEF02B983
:1000E0000EEF0093610003E009BF0FE000936A0088
:1000F00005E003BF08E000BF05E00EBD0FEF10E014
:100100000DBD1CBD05E005BD03E000938A0005E4BC
:1001100007BF04E000937D0000E607B90FED06B9C4
:100120006068789456FD0E94090357FD0E9462039F
:1001300055FD0E94720354FD0E94B80353FD0E94B6
:10014000B20452FD0E94380251FD0E946E0250FD21
:100150000E94D00267FD0E94460266FD0E94460191
:1001600065FD0E94E50263FD0E94CF0464FD0E94CC
:10017000E10462FD0E94520261FD0E949A0360FD4B
:100180000E94040177FD0E945F0276FD0E94CA0072
:100190000C9492007F7BB1E0A0E00CE0A00F1C91DA
:1001A0001A33B0F0143EC0F4B1E0A0E00DE0A00FAF
:1001B0002C91283AB0F42835C8F0B1E0A0E00EE068
:1001C000A00F3C91383AB8F43835D0F00C940301C4
:1001D0000E9434010C94D200949A0E9434010C9431
:1001E000D400939A0E9434010C94DB00939A0E94ED
:1001F00034010C94DD00939A0E9434010C94E400C5
:10020000939A0E94340108956E7FB1E0ACE20C91A4
:100210000C3141F0043151F00C3061F0093171F0D2
:100220000C9420010E94FF010C9420010E941102F5
:100230000C9420010E9421010C9420010E942302B1
:10024000089586FD0C9426010C942D0100E0009386
:100250002C010E9438010E94420108958F7D8F7EFB
:10026000877F8F7B8F7708950E942E018064089589
:100270008F7B08950E942E01806208950E942E01B6
:10028000806108950E942E01886008950FEF10EF9D
:1002900000938900109388006F7B82FF0C94860185
:1002A000B1E0AEE10C9103950F3F11F00C945A01AF
:1002B000526000E000931E01B1E0A1E20C910F3FFB
:1002C00029F00395009321010C947A0100EC00932E
:1002D0002101B1E0A2E20C910F3F29F003950093B8
:1002E00022010C947A01516000EC0093210109EF86
:1002F00000932201B1E0AFE10C9103950F3F11F0A3
:100300000C948401606200E000931F01B1E0A7E259
:100310000C9103950F3F11F00C94990100E00093AC
:100320002701B1E0A6E20C9103950F3F51F00C9428
:100330009D01009327010C94A801009326010C94C1
:10034000A8010CEF0093260100E0009327016860EC
:10035000B1E0ACE10C9103950F3F21F000931C013B
:100360000C94C10100E000931C01B1E0ABE10C91E1
:1003700003950F3F11F00C94BF01626000EE0093F3
:100380001B01B1E0AAE20C9103950F3F11F00C9410
:10039000CB01646000E000932A01B1E0ADE20C9172
:1003A00003950E3F10F40C94D701616000E00093B8
:1003B0002D01B1E0A5E20C9103950F3F21F00093D0
:1003C00025010C94F20100E000932501B1E0A4E2C4
:1003D0000C9103950F3F11F00C94F001706800EF41
:1003E00000932401B1E0AEE20C9103950E3F10F4AE
:1003F0000C94FC01706400E000932E01089582FFCC
:1004000008950E943A0100E000932C01B1E0ADE1B3
:100410000C9103950F3108F00EE100931D0154601B
:10042000089582FF08950E943A0100E000932C0194
:10043000B1E0ADE10C910A950A307CF70AE0009337
:100440001D015460089500E000932C0182FF0C947C
:100450002B020C94300284600E943E010C943702FF
:100460008B7F0E944201189819980C9437020895C6
:10047000E1990C94450200E00FBB0EBBB1E0ADE189
:100480000C910DBBE29AE19A5B7F0895E1990C947F
:10049000510200E00FBB0EBBE09A0DB300931D01AB
:1004A0006F7708956B7FB1E0A0E032E0A30F0C916D
:1004B000083F10F40C945E020E94340108957F7787
:1004C000B1E0A0E031E0A30F0C91063C20F4003332
:1004D00010F00C946D020E943401089582FF08957B
:1004E0005D7FB1E0ADE10C910F3180F40A3070F026
:1004F000B1E0A0E01C91B1E0A0E031E0A30F3C919D
:10050000163C20F4103310F00C9488020E94340141
:10051000103848F01058101730F00C948F021898CB
:10052000199A0C949502189A19980E949A020E949E
:10053000B5020895B1E0A0E00C91B1E0A0E032E096
:10054000A30F1C91011738F00C94A60219990C9472
:10055000B0020C94B30218990C94B0020C94B3023C
:10056000979A0C94B40297980895B1E0A0E00C918A
:10057000B1E0A0E031E0A30F1C91011738F00C941A
:10058000C10219990C94CB020C94CE0218990C94C8
:10059000CB020C94CE02969A0C94CF0296980895B2
:1005A00082FF08955E7FB1E0A3E20C91003029F054
:1005B0000695083011F00C94DE0200E80093230148
:1005C00013B11F70102B13B9089582FF08956F7D2A
:1005D000F1E0E0E20081B1E0A0E028E0A20FA00F8E
:1005E0001C91107C129521B1237F212B23B920B1BE
:1005F0002F73102F1295110F110F212B20936200D2
:100600000395043010F40C94060300E000932001DD
:1006100008955F7B00EF02BF86FD0C94190385FDF2
:100620000C94250384FD0C94320383FD0C944A033F
:10063000089587FF0C941E030C9423030CEF009382
:100640002B01806808958F77089587FF0C942A0303
:100650000C942F030CEF00932B01806808958F7D7D
:100660008F77089587FF0C9437030C943C030CEFAD
:1006700000932B0180680895B1E0ABE20C910C3F30
:1006800011F00C9447030EEF00932B0108958F7720
:100690008F7E089587FF0C944F030C9454030EEF44
:1006A00000932B0180680895B1E0ABE20C910E3FFE
:1006B00011F00C945F030CEF00932B0108958F77DA
:1006C000877F08955F77B1E0ABE20C9104BD87FFAF
:1006D0001895959B0C946E030C947003959A18953D
:1006E0009598189509B70E7F09BF5F7D00E00BBB99
:1006F00009B30E948A0308E00BBB09B30E948A0376
:1007000000E10BBB09B30E948A0308E10BBB09B3EC
:100710000C949103102F1770103009F408951F9155
:100720001F9100932C0100E80BBB09B711E0012BCE
:1007300009BF08956D7F86FD0C94A1038E7F0C94F4
:10074000A90380FF0C94A6030C94A90381600C9468
:10075000B7038E7FB1E0AAE10C91013028F4039534
:1007600000931A010C94B70300E000931A01089556
:100770005F7E0FEF10EF0DBD1CBDB1E0A9E12C9124
:100780002395283010F40C94E00320E00E94F60337
:10079000B1E0AAE10C9180FD0C94DE03003011F071
:1007A000013041F00E9442040E942D040E941D0469
:1007B0000C94E0030E940A040C94E0030E945C0481
:1007C00020931901B1E0A0E1A20F0C91F0E0E0EA62
:1007D000E00F0491213021F0243011F00C94F1034A
:1007E0000E7F2295220F28BB05BB0895F0E0E0EABA
:1007F00003E1009310010093110100931201009393
:100800001301009314010093150100931601009346
:1008100017010895B1E0A9E20C910E946B04102F1A
:100820001F7010931201007F02950093110100E0E8
:100830000093130100931401089582FF0895B1E01D
:10084000ADE10C910E946B04102F1F7010931401E6
:10085000007F0295009313010895B1E0A0E00C9190
:10086000003820F411E110931501009500580E9402
:100870006B04102F1F7010931701007F02950093D7
:1008800016010895B1E0A0E002E0A00F0C9100383D
:1008900068F000580E946B04102F1F701093110114
:1008A000007F0295009310010C945B0401E100931A
:1008B00010010093110108950EE00093100102E170
:1008C000009311010093120100E00093130102E173
:1008D0000093140108950436D8F510E00A3014F49A
:1008E0000C94AE040A5013950A3014F40C94AE0420
:1008F0000A5013950A3014F40C94AE040A50139560
:100900000A3014F40C94AE040A5013950A3014F40F
:100910000C94AE040A5013950A3014F40C94AE04EF
:100920000A5013950A3014F40C94AE040A5013952F
:100930000A3014F40C94AE040A5013950A3014F4DF
:100940000C94AE040A5013951A3014F40C94AE04AF
:1009500019E0012F0295010F0C94B1040295010FCB
:1009600002950895577FB1E0A8E11C91F1E0E0E025
:10097000E10F04B105B100831395103114F40C9408
:10098000C20410E010931801110F00B1017E102B6A
:100990001093620000E607B90EED06B90895677F6F
:1009A000B1E0A8E20C9116E0019F002D003610F492
:1009B0000C94DB0403E60093290100E00093280176
:1009C00008956F7E09B70D7F09BFB1E0A8E20C91D1
:1009D0000F3F29F00C94EC0403950093280109B70C
:1009E00012E0012B09BF08954FB750624FBF189511
:1009F0004FB760614FBF18954FB750644FBF189500
:100A00004FB750614FBF18954FB750684FBF1895FB
:100A10004FB760644FBF18954FB758604FBF1895D8
:00000001FF
