:020000020000FC
:0C0000000C945C000C94A9050C94AD0558
:040028000C94BE0571
:040038000C94BA0565
:040040000C94B60561
:040054000C94CB0538
:040074000C94C20521
:1000A000039F250D9949411F010911C161856171A6
:1000B00039FD73FF0E12121300E10EBF0FEF0DBFDB
:1000C00008E90ABB00E80BBB00EE07BB0FEF04BB5F
:1000D00004E010E8012B10E4012B01BB0FEF02B983
:1000E0000EEF0093610003E009BF0FE000936A0088
:1000F00005E003BF08E000BF05E00EBD0FEF10E014
:100100000DBD1CBD05E005BD03E000938A0005E4BC
:1001100007BF04E000937D0000E607B90FED06B9C4
:10012000F1E0EFE28081806880932F01789456FDA2
:100130000E948A0357FD0E94F60355FD0E940904A0
:1001400054FD0E945D0453FD0E945D0552FD0E9416
:100150009D0251FD0E94E10250FD0E944603B1E064
:10016000AFE27C9177FD0E94AB0276FD0E947601A2
:1001700075FD0E945E0373FD0E947A0574FD0E9466
:10018000910572FD0E94BC0271FD0E94310470FD58
:100190000E941101B1E0A0E37C9177FD0E94D002A2
:1001A00076FD0E94D5000C9497007F7B7093300100
:1001B000B1E0A0E00CE0A00F1C911A33B0F0143EA7
:1001C000C0F4B1E0A0E00DE0A00F2C91283AB0F40B
:1001D0002835C8F0B1E0A0E00EE0A00F3C91383A1D
:1001E000B8F43835D0F00C9410010E9449010C94F9
:1001F000DF00949A0E9449010C94E100939A0E94B6
:1002000049010C94E800939A0E9449010C94EA0079
:10021000939A0E9449010C94F100939A0E9449011B
:100220000895F1E0EFE280818E7F80932F01B1E0AD
:10023000ACE20C910C3141F0043151F00C3061F022
:10024000093171F00C9432010E9457020C94320172
:100250000E946C020C9432010E9433010C94320112
:100260000E9481020895F1E0E1E3808186FD0C9413
:100270003B010C94420100E000932C010E945401C8
:100280000E946D0108958F7D8F7E877F8F7B8F7792
:100290000895F1E0E1E3808186FD08950E94430125
:1002A0008064809331010895F1E0E1E380818F7BE8
:1002B000809331010895F1E0E1E380810E944301E0
:1002C0008062809331010895F1E0E1E380810E9432
:1002D00043018061809331010895F1E0E1E3808181
:1002E0000E94430188608093310108950FEF10EF61
:1002F0000093890010938800F1E0EFE280818F7B0A
:1003000080932F01F1E0E1E3808182FF0C94C3012F
:10031000B1E0AEE10C9103950F3F11F00C94920106
:10032000526000E000931E01B1E0A1E20C910F3F8A
:1003300029F00395009321010C94B20100EC009385
:100340002101B1E0A2E20C910F3F29F00395009347
:1003500022010C94B201516000EC0093210109EFDD
:1003600000932201B1E0AFE10C9103950F3F11F032
:100370000C94C101F1E0EFE28081806280932F0153
:1003800000E000931F01B1E0A7E20C9103950F3F3D
:1003900011F00C94D60100E000932701B1E0A6E231
:1003A0000C9103950F3F51F00C94DA010093270153
:1003B0000C94EA01009326010C94EA010CEF0093DF
:1003C000260100E000932701F1E0EFE280818860E0
:1003D00080932F01B1E0ACE10C9103950F3F21F028
:1003E00000931C010C94080200E000931C01B1E092
:1003F000ABE10C9103950F3F11F00C940602F1E074
:10040000EFE28081826080932F0100EE00931B0158
:10041000B1E0AAE20C9103950F3F11F00C94170282
:10042000F1E0EFE28081846080932F0100E000938F
:100430002A01B1E0ADE20C9103950E3F10F40C944B
:100440002802F1E0EFE28081816080932F0100E0DB
:1004500000932D01B1E0A0E37C91B1E0A5E20C9105
:1004600003950F3F21F0009325010C94480200E012
:1004700000932501B1E0A4E20C9103950F3F11F028
:100480000C94460270687093300100EF00932401D1
:10049000B1E0AEE20C9103950E3F10F40C945402BF
:1004A00070647093300100E000932E010895F1E034
:1004B000E1E3808182FF08950E945B0100E00093E8
:1004C0002C01B1E0ADE10C9103950F3108F00EE184
:1004D00000931D0154600895F1E0E1E3808182FF03
:1004E00008950E945B0100E000932C01B1E0ADE1B2
:1004F0000C910A950A3064F70AE000931D015460DC
:10050000089500E000932C01F1E0E1E3808182FF97
:100510000C948C020C9493028460809331010E94AD
:1005200064010C949C028B7F809331010E946D01C9
:10053000189819980C949C020895E1990C94AA02B9
:1005400000E00FBB0EBBB1E0ADE10C910DBBE29A38
:10055000E19A5B7F0895E1990C94BB0200E00FBB28
:100560000EBBE09A0DB300931D01F1E0EFE2808134
:100570008F7780932F010895F1E0EFE280818B7FE8
:1005800080932F01B1E0A0E032E0A30F0C91083F6F
:1005900020F4003310F00C94CF020E94490108951A
:1005A0007F7770933001B1E0A0E031E0A30F0C91B0
:1005B000063C20F4003310F00C94E0020E94490144
:1005C0000895F1E0E1E3808182FF08955D7FB1E06D
:1005D000ADE10C910F3180F40A3070F0B1E0A0E091
:1005E0001C91B1E0A0E031E0A30F3C91163C20F457
:1005F000103310F00C94FE020E944901103848F0AC
:100600001058101730F00C9405031898199A0C9490
:100610000B03189A19980E9410030E942B03089547
:10062000B1E0A0E00C91B1E0A0E032E0A30F1C919A
:10063000011738F00C941C0319990C9426030C94A0
:10064000290318990C9426030C942903979A0C9467
:100650002A0397980895B1E0A0E00C91B1E0A0E0E2
:1006600031E0A30F1C91011738F00C94370319994E
:100670000C9441030C94440318990C9441030C947A
:100680004403969A0C94450396980895F1E0E1E3AB
:10069000808182FF08955E7FB1E0A3E20C9100307B
:1006A00029F00695083011F00C94570300E80093E8
:1006B000230113B11F70102B13B90895F1E0E1E38A
:1006C000808182FF0895F1E0EFE280818F7D809349
:1006D0002F01F1E0E0E20081B1E0A0E028E0A20F0C
:1006E000A00F1C91107C129521B1237F212B23B9DF
:1006F00020B12F73102F1295110F110F212B209362
:1007000062000395043010F40C94870300E000931A
:10071000200108955F7B00EF02BFF1E0E1E38081FB
:1007200086FD0C949D0385FD0C94AD0384FD0C9413
:10073000BE0383FD0C94DA03089587FF0C94A20393
:100740000C94A9030CEF00932B0180688093310176
:1007500008958F7780933101089587FF0C94B20339
:100760000C94B9030CEF00932B0180688093310146
:1007700008958F7D8F7780933101089587FF0C94C2
:10078000C3030C94CA030CEF00932B018068809381
:1007900031010895B1E0ABE20C910C3F11F00C94E3
:1007A000D5030EEF00932B0108958F778F7E8093F2
:1007B0003101089587FF0C94DF030C94E6030EEFDC
:1007C00000932B018068809331010895B1E0ABE282
:1007D0000C910E3F11F00C94F1030CEF00932B01E0
:1007E00008958F77877F8093310108955F77B1E017
:1007F000ABE20C9104BDF1E0E1E3808187FF189545
:10080000959B0C9405040C940704959A189595985B
:10081000189509B70E7F09BF5F7D00E00BBB09B3D8
:100820000E94210408E00BBB09B30E94210400E1EF
:100830000BBB09B30E94210408E10BBB09B30C9464
:100840002804102F1770103009F408951F911F917C
:1008500000932C0100E80BBB09B711E0012B09BF85
:100860000895F1E0EFE280818D7F80932F01F1E028
:10087000E1E3808186FD0C9442048E7F80933101F8
:100880000C944C0480FF0C9447040C944C0481603D
:10089000809331010C945C048E7F80933101B1E030
:1008A000AAE10C91013028F4039500931A010C94ED
:1008B0005C0400E000931A0108955F7E0FEF10EFD3
:1008C0000DBD1CBDB1E0A9E12C912395283010F499
:1008D0000C94880420E00E949E04B1E0AAE10C91EF
:1008E000F1E0E1E3808180FD0C948604003011F09A
:1008F000013041F00E94ED040E94D8040E94C5041A
:100900000C9488040E94B2040C9488040E94070589
:1009100020931901B1E0A0E1A20F0C91F0E0E0EA10
:10092000E00F0491213021F0243011F00C9499044F
:100930000E7F2295220F28BB05BB0895F0E0E0EA68
:1009400003E1009310010093110100931201009341
:1009500013010093140100931501009316010093F5
:1009600017010895B1E0A9E20C910E941605102F1D
:100970001F7010931201007F02950093110100E097
:1009800000931301009314010895F1E0E1E38081E5
:1009900082FF0895B1E0ADE10C910E941605102F81
:1009A0001F7010931401007F0295009313010895A6
:1009B000B1E0A0E00C91003820F411E11093150192
:1009C000009500580E941605102F1F7010931701F4
:1009D000007F0295009316010895B1E0A0E002E0C7
:1009E000A00F0C91003868F000580E941605102FD7
:1009F0001F7010931101007F0295009310010C9459
:100A0000060501E1009310010093110108950EE025
:100A10000093100102E1009311010093120100E024
:100A20000093130102E10093140108950436D8F5F0
:100A300010E00A3014F40C9459050A5013950A304A
:100A400014F40C9459050A5013950A3014F40C94BC
:100A500059050A5013950A3014F40C9459050A509C
:100A600013950A3014F40C9459050A5013950A3062
:100A700014F40C9459050A5013950A3014F40C948C
:100A800059050A5013950A3014F40C9459050A506C
:100A900013950A3014F40C9459050A5013951A3022
:100AA00014F40C94590519E0012F0295010F0C94D0
:100AB0005C050295010F02950895577FB1E0A8E10A
:100AC0001C91F1E0E0E0E10F04B105B10083139562
:100AD000103114F40C946D0510E010931801110FEF
:100AE00000B1017E102B1093620000E607B90EEDF5
:100AF00006B90895F1E0EFE28081877F80932F01AE
:100B0000B1E0A8E20C9116E0019F002D003610F430
:100B10000C948B0503E60093290100E00093280163
:100B20000895F1E0EFE280818F7E80932F0109B775
:100B30000D7F09BFB1E0A8E20C910F3F29F00C94A2
:100B4000A10503950093280109B712E0012B09BF05
:100B500008954FB750624FBF18954FB7D1E0CFE21D
:100B60006881606160932F014FBF18954FB7506443
:100B70004FBF18954FB750614FBF18954FB750688A
:100B80004FBF18954FB7D1E0CFE2688160646093A2
:0E0B90002F014FBF18954FB758604FBF1895F3
:00000001FF
