:020000020000FC
:0C0000000C945C000C9406050C940A059E
:040028000C94160519
:040038000C9412050D
:040040000C940E0509
:040054000C941E05E5
:040074000C941A05C9
:1000A000039F250D9949411F010911C161856171A6
:1000B00039FD73FF0E12121300E10EBF0FEF0DBFDB
:1000C00008E90ABB00E80BBB00EE07BB0FEF04BB5F
:1000D00004E010E8012B10E4012B01BB0FEF02B983
:1000E0000EEF0093610003E009BF0FE000936A0088
:1000F00005E003BF08E000BF05E00EBD0FEF10E014
:100100000DBD1CBD05E005BD03E000938A0005E4BC
:1001100007BF04E000937D0000E607B90FED06B9C4
:100120006068789456FD0E941B0357FD0E9474037B
:1001300055FD0E94840354FD0E94CA0353FD0E9492
:10014000C40452FD0E94460251FD0E94800250FDEF
:100150000E94E20267FD0E94540266FD0E944D016A
:1001600065FD0E94F70263FD0E94E10464FD0E94A8
:10017000F30462FD0E94600261FD0E94AC0360FD19
:100180000E940901B1E0AFE27C9177FD0E946F020D
:1001900076FD0E94CD000C9492007F7B70932F011E
:1001A000B1E0A0E00CE0A00F1C911A33B0F0143EB7
:1001B000C0F4B1E0A0E00DE0A00F2C91283AB0F41B
:1001C0002835C8F0B1E0A0E00EE0A00F3C91383A2D
:1001D000B8F43835D0F00C9408010E9439010C9421
:1001E000D700949A0E9439010C94D900939A0E94E6
:1001F00039010C94E000939A0E9439010C94E200BA
:10020000939A0E9439010C94E900939A0E94390153
:1002100008956E7FB1E0ACE20C910C3141F00431F5
:1002200051F00C3061F0093171F00C9425010E94FD
:100230000D020C9425010E941F020C9425010E94BE
:1002400026010C9425010E943102089586FD0C942C
:100250002B010C94320100E000932C010E943F011D
:100260000E94490108958F7D8F7E877F8F7B8F77D6
:10027000089586FD08950E943301806408958F7B60
:1002800008950E943301806208950E9433018061C5
:1002900008950E943301886008950FEF10EF0093D6
:1002A0008900109388006F7B82FF0C948D01B1E070
:1002B000AEE10C9103950F3F11F00C946101526077
:1002C00000E000931E01B1E0A1E20C910F3F29F084
:1002D0000395009321010C94810100EC009321010E
:1002E000B1E0A2E20C910F3F29F0039500932201A7
:1002F0000C948101516000EC0093210109EF0093FF
:100300002201B1E0AFE10C9103950F3F11F00C9485
:100310008B01606200E000931F01B1E0A7E20C9145
:1003200003950F3F11F00C94A00100E0009327010A
:10033000B1E0A6E20C9103950F3F51F00C94A4019B
:10034000009327010C94AF01009326010C94AF0198
:100350000CEF0093260100E0009327016860B1E0F4
:10036000ACE10C9103950F3F21F000931C010C941C
:10037000C80100E000931C01B1E0ABE10C910395D2
:100380000F3F11F00C94C601626000EE00931B0158
:10039000B1E0AAE20C9103950F3F11F00C94D20149
:1003A000646000E000932A01B1E0ADE20C91039596
:1003B0000E3F10F40C94DE01616000E000932D010B
:1003C000B1E0AFE27C91B1E0A5E20C9103950F3F63
:1003D00021F0009325010C94FE0100E0009325011B
:1003E000B1E0A4E20C9103950F3F11F00C94FC01D5
:1003F000706870932F0100EF00932401B1E0AEE22A
:100400000C9103950E3F10F40C940A0270647093E3
:100410002F0100E000932E01089582FF08950E94AD
:10042000410100E000932C01B1E0ADE10C91039596
:100430000F3108F00EE100931D015460089582FF12
:1004400008950E94410100E000932C01B1E0ADE16C
:100450000C910A950A307CF70AE000931D01546064
:10046000089500E000932C0182FF0C9439020C9453
:100470003E0284600E9445010C9445028B7F0E94DD
:100480004901189819980C9445020895E1990C9423
:10049000530200E00FBB0EBBB1E0ADE10C910DBB10
:1004A000E29AE19A5B7F0895E1990C945F0200E083
:1004B0000FBB0EBBE09A0DB300931D016F7708953B
:1004C0006B7FB1E0A0E032E0A30F0C91083F20F475
:1004D000003310F00C946E020E94390108957F776A
:1004E00070932F01B1E0A0E031E0A30F0C91063C26
:1004F00020F4003310F00C947F020E94390108951B
:1005000082FF08955D7FB1E0ADE10C910F3180F481
:100510000A3070F0B1E0A0E01C91B1E0A0E031E061
:10052000A30F3C91163C20F4103310F00C949A0267
:100530000E943901103848F01058101730F00C9410
:10054000A1021898199A0C94A702189A19980E9457
:10055000AC020E94C7020895B1E0A0E00C91B1E0A6
:10056000A0E032E0A30F1C91011738F00C94B80200
:1005700019990C94C2020C94C50218990C94C202E9
:100580000C94C502979A0C94C60297980895B1E00E
:10059000A0E00C91B1E0A0E031E0A30F1C910117A5
:1005A00038F00C94D30219990C94DD020C94E002FB
:1005B00018990C94DD020C94E002969A0C94E102D6
:1005C0009698089582FF08955E7FB1E0A3E20C91B2
:1005D000003029F00695083011F00C94F00200E884
:1005E0000093230113B11F70102B13B9089582FFDC
:1005F00008956F7DF1E0E0E20081B1E0A0E028E045
:10060000A20FA00F1C91107C129521B1237F212BEA
:1006100023B920B12F73102F1295110F110F212B19
:10062000209362000395043010F40C94180300E04A
:100630000093200108955F7B00EF02BF86FD0C94BC
:100640002B0385FD0C94370384FD0C94440383FD38
:100650000C945C03089587FF0C9430030C943503CD
:100660000CEF00932B01806808958F77089587FF22
:100670000C943C030C9441030CEF00932B01806815
:1006800008958F7D8F77089587FF0C9449030C940C
:100690004E030CEF00932B0180680895B1E0ABE2AC
:1006A0000C910C3F11F00C9459030EEF00932B01A9
:1006B00008958F778F7E089587FF0C9461030C94C3
:1006C00066030EEF00932B0180680895B1E0ABE262
:1006D0000C910E3F11F00C9471030CEF00932B0161
:1006E00008958F77877F08955F77B1E0ABE20C9133
:1006F00004BD87FF1895959B0C9480030C9482038E
:10070000959A18959598189509B70E7F09BF5F7D42
:1007100000E00BBB09B30E949C0308E00BBB09B3CC
:100720000E949C0300E10BBB09B30E949C0308E1FB
:100730000BBB09B30C94A303102F1770103009F4EE
:1007400008951F911F9100932C0100E80BBB09B77E
:1007500011E0012B09BF08956D7F86FD0C94B30352
:100760008E7F0C94BB0380FF0C94B8030C94BB03E6
:1007700081600C94C9038E7FB1E0AAE10C91013035
:1007800028F4039500931A010C94C90300E0009328
:100790001A0108955F7E0FEF10EF0DBD1CBDB1E093
:1007A000A9E12C912395283010F40C94F20320E059
:1007B0000E940804B1E0AAE10C9180FD0C94F003C2
:1007C000003011F0013041F00E9454040E943F04B7
:1007D0000E942F040C94F2030E941C040C94F20358
:1007E0000E946E0420931901B1E0A0E1A20F0C91C8
:1007F000F0E0E0EAE00F0491213021F0243011F024
:100800000C9403040E7F2295220F28BB05BB08958C
:10081000F0E0E0EA03E1009310010093110100937E
:10082000120100931301009314010093150100932A
:100830001601009317010895B1E0A9E20C910E94FE
:100840007D04102F1F7010931201007F02950093FA
:10085000110100E00093130100931401089582FF39
:100860000895B1E0ADE10C910E947D04102F1F703E
:1008700010931401007F0295009313010895B1E0D5
:10088000A0E00C91003820F411E1109315010095BF
:1008900000580E947D04102F1F7010931701007FD5
:1008A0000295009316010895B1E0A0E002E0A00FC8
:1008B0000C91003868F000580E947D04102F1F70C2
:1008C00010931101007F0295009310010C946D04A8
:1008D00001E1009310010093110108950EE00093CF
:1008E000100102E1009311010093120100E0009356
:1008F000130102E10093140108950436D8F510E0C5
:100900000A3014F40C94C0040A5013950A3014F4FD
:100910000C94C0040A5013950A3014F40C94C004CB
:100920000A5013950A3014F40C94C0040A5013951D
:100930000A3014F40C94C0040A5013950A3014F4CD
:100940000C94C0040A5013950A3014F40C94C0049B
:100950000A5013950A3014F40C94C0040A501395ED
:100960000A3014F40C94C0040A5013951A3014F48D
:100970000C94C00419E0012F0295010F0C94C304DC
:100980000295010F02950895577FB1E0A8E11C91EF
:10099000F1E0E0E0E10F04B105B1008313951031FF
:1009A00014F40C94D40410E010931801110F00B14A
:1009B000017E102B1093620000E607B90EED06B918
:1009C0000895677FB1E0A8E20C9116E0019F002D29
:1009D000003610F40C94ED0403E60093290100E0C6
:1009E0000093280108956F7E09B70D7F09BFB1E01C
:1009F000A8E20C910F3F29F00C94FE04039500939C
:100A0000280109B712E0012B09BF08954FB75062C2
:100A10004FBF18954FB760614FBF18954FB75064DF
:100A20004FBF18954FB750614FBF18954FB75068DB
:100A30004FBF18954FB760644FBF18954FB75860B8
:040A40004FBF1895F7
:00000001FF
