:020000020000FC
:0C0000000C945C000C9460050C946405EA
:040028000C947005BF
:040038000C946C05B3
:040040000C946805AF
:040054000C9478058B
:040074000C9474056F
:1000A000039F250D9949411F010911C161856171A6
:1000B00039FD73FF0E12121300E10EBF0FEF0DBFDB
:1000C00008E90ABB00E80BBB00EE07BB0FEF04BB5F
:1000D00004E010E8012B10E4012B01BB0FEF02B983
:1000E0000EEF0093610003E009BF0FE000936A0088
:1000F00005E003BF08E000BF05E00EBD0FEF10E014
:100100000DBD1CBD05E005BD03E000938A0005E4BC
:1001100007BF04E000937D0000E607B90FED06B9C4
:100120006068789456FD0E94500357FD0E94BC03FE
:1001300055FD0E94CF0354FD0E941E0453FD0E94F2
:100140001E0552FD0E94720251FD0E94AC0250FD3C
:100150000E94110367FD0E94800266FD0E946901F2
:1001600065FD0E94290363FD0E943B0564FD0E941A
:100170004D0562FD0E948C0261FD0E94F70360FD47
:100180000E940901B1E0AFE27C9177FD0E949B02E1
:1001900076FD0E94CD000C9492007F7B70932F011E
:1001A000B1E0A0E00CE0A00F1C911A33B0F0143EB7
:1001B000C0F4B1E0A0E00DE0A00F2C91283AB0F41B
:1001C0002835C8F0B1E0A0E00EE0A00F3C91383A2D
:1001D000B8F43835D0F00C9408010E943C010C941E
:1001E000D700949A0E943C010C94D900939A0E94E3
:1001F0003C010C94E000939A0E943C010C94E200B4
:10020000939A0E943C010C94E900939A0E943C014D
:1002100008956E7FB1E0ACE20C910C3141F00431F5
:1002200051F00C3061F0093171F00C9425010E94FD
:100230002C020C9425010E9441020C9425010E947D
:1002400026010C9425010E9456020895F1E0E0E396
:10025000808186FD0C942E010C94350100E0009302
:100260002C010E9447010E94600108958F7D8F7EBE
:10027000877F8F7B8F770895F1E0E0E3808186FDB3
:1002800008950E9436018064809330010895F1E062
:10029000E0E380818F7B809330010895F1E0E0E31B
:1002A00080810E9436018062809330010895F1E0E0
:1002B000E0E380810E9436018061809330010895DF
:1002C000F1E0E0E380810E94360188608093300194
:1002D00008950FEF10EF00938900109388006F7B53
:1002E000F1E0E0E3808182FF0C94AC01B1E0AEE18B
:1002F0000C9103950F3F11F00C948001526000E0C7
:1003000000931E01B1E0A1E20C910F3F29F003958B
:10031000009321010C94A00100EC00932101B1E0B5
:10032000A2E20C910F3F29F00395009322010C9457
:10033000A001516000EC0093210109EF009322011C
:10034000B1E0AFE10C9103950F3F11F00C94AA01BD
:10035000606200E000931F01B1E0A7E20C910395F9
:100360000F3F11F00C94BF0100E000932701B1E0B2
:10037000A6E20C9103950F3F51F00C94C30100933A
:1003800027010C94CE01009326010C94CE010CEFB2
:100390000093260100E0009327016860B1E0ACE122
:1003A0000C9103950F3F21F000931C010C94E70181
:1003B00000E000931C01B1E0ABE10C9103950F3F0D
:1003C00011F00C94E501626000EE00931B01B1E0B6
:1003D000AAE20C9103950F3F11F00C94F1016460B7
:1003E00000E000932A01B1E0ADE20C9103950E3FCD
:1003F00010F40C94FD01616000E000932D01B1E068
:10040000AFE27C91B1E0A5E20C9103950F3F21F0A2
:10041000009325010C941D0200E000932501B1E03A
:10042000A4E20C9103950F3F11F00C941B0270682D
:1004300070932F0100EF00932401B1E0AEE20C9124
:1004400003950E3F10F40C942902706470932F01F1
:1004500000E000932E010895F1E0E0E3808182FF47
:1004600008950E944E0100E000932C01B1E0ADE13F
:100470000C9103950F3108F00EE100931D015460BB
:100480000895F1E0E0E3808182FF08950E944E012B
:1004900000E000932C01B1E0ADE10C910A950A3027
:1004A00064F70AE000931D015460089500E0009392
:1004B0002C01F1E0E0E3808182FF0C9461020C9456
:1004C00068028460809330010E9457010C9471028D
:1004D0008B7F809330010E946001189819980C94CA
:1004E00071020895E1990C947F0200E00FBB0EBBEE
:1004F000B1E0ADE10C910DBBE29AE19A5B7F08950A
:10050000E1990C948B0200E00FBB0EBBE09A0DB397
:1005100000931D016F7708956B7FB1E0A0E032E09A
:10052000A30F0C91083F20F4003310F00C949A02B2
:100530000E943C0108957F7770932F01B1E0A0E005
:1005400031E0A30F0C91063C20F4003310F00C9422
:10055000AB020E943C010895F1E0E0E3808182FF5C
:1005600008955D7FB1E0ADE10C910F3180F40A3068
:1005700070F0B1E0A0E01C91B1E0A0E031E0A30F89
:100580003C91163C20F4103310F00C94C9020E94E8
:100590003C01103848F01058101730F00C94D0027D
:1005A0001898199A0C94D602189A19980E94DB028E
:1005B0000E94F6020895B1E0A0E00C91B1E0A0E045
:1005C00032E0A30F1C91011738F00C94E70219993F
:1005D0000C94F1020C94F40218990C94F1020C940E
:1005E000F402979A0C94F50297980895B1E0A0E070
:1005F0000C91B1E0A0E031E0A30F1C91011738F09D
:100600000C94020319990C940C030C940F03189981
:100610000C940C030C940F03969A0C941003969868
:100620000895F1E0E0E3808182FF08955E7FB1E00C
:10063000A3E20C91003029F00695083011F00C94DB
:10064000220300E80093230113B11F70102B13B98C
:100650000895F1E0E0E3808182FF08956F7DF1E08D
:10066000E0E20081B1E0A0E028E0A20FA00F1C9121
:10067000107C129521B1237F212B23B920B12F7338
:10068000102F1295110F110F212B2093620003954B
:10069000043010F40C944D0300E000932001089501
:1006A0005F7B00EF02BFF1E0E0E3808186FD0C9408
:1006B000630385FD0C94730384FD0C94840383FD14
:1006C0000C94A003089587FF0C9468030C946F03A7
:1006D0000CEF00932B0180688093300108958F7791
:1006E00080933001089587FF0C9478030C947F0366
:1006F0000CEF00932B0180688093300108958F7D6B
:100700008F7780933001089587FF0C9489030C94B0
:1007100090030CEF00932B018068809330010895C3
:10072000B1E0ABE20C910C3F11F00C949B030EEF87
:1007300000932B0108958F778F7E80933001089569
:1007400087FF0C94A5030C94AC030EEF00932B01D0
:100750008068809330010895B1E0ABE20C910E3FC8
:1007600011F00C94B7030CEF00932B0108958F77D1
:10077000877F8093300108955F77B1E0ABE20C9101
:1007800004BDF1E0E0E3808187FF1895959B0C9410
:10079000CB030C94CD03959A18959598189509B7A5
:1007A0000E7F09BF5F7D00E00BBB09B30E94E7032A
:1007B00008E00BBB09B30E94E70300E10BBB09B3E0
:1007C0000E94E70308E10BBB09B30C94EE03102F62
:1007D0001770103009F408951F911F9100932C0198
:1007E00000E80BBB09B711E0012B09BF08956D7F2D
:1007F000F1E0E0E3808186FD0C9403048E7F80931A
:1008000030010C940D0480FF0C9408040C940D042A
:100810008160809330010C941D048E7F80933001A1
:10082000B1E0AAE10C91013028F4039500931A017C
:100830000C941D0400E000931A0108955F7E0FEFF1
:1008400010EF0DBD1CBDB1E0A9E12C91239528301E
:1008500010F40C94490420E00E945F04B1E0AAE186
:100860000C91F1E0E0E3808180FD0C9447040030BE
:1008700011F0013041F00E94AE040E9499040E94E0
:1008800086040C9449040E9473040C9449040E9449
:10089000C80420931901B1E0A0E1A20F0C91F0E08F
:1008A000E0EAE00F0491213021F0243011F00C94A3
:1008B0005A040E7F2295220F28BB05BB0895F0E055
:1008C000E0EA03E10093100100931101009312018B
:1008D0000093130100931401009315010093160176
:1008E000009317010895B1E0A9E20C910E94D7048A
:1008F000102F1F7010931201007F029500931101B9
:1009000000E000931301009314010895F1E0E0E387
:10091000808182FF0895B1E0ADE10C910E94D7047F
:10092000102F1F7010931401007F02950093130184
:100930000895B1E0A0E00C91003820F411E110938B
:100940001501009500580E94D704102F1F701093B6
:100950001701007F0295009316010895B1E0A0E011
:1009600002E0A00F0C91003868F000580E94D704F4
:10097000102F1F7010931101007F0295009310013A
:100980000C94C70401E10093100100931101089534
:100990000EE00093100102E1009311010093120197
:1009A00000E00093130102E100931401089504365E
:1009B000D8F510E00A3014F40C941A050A50139577
:1009C0000A3014F40C941A050A5013950A3014F4E2
:1009D0000C941A050A5013950A3014F40C941A0555
:1009E0000A5013950A3014F40C941A050A50139502
:1009F0000A3014F40C941A050A5013950A3014F4B2
:100A00000C941A050A5013950A3014F40C941A0524
:100A10000A5013950A3014F40C941A050A501395D1
:100A20001A3014F40C941A0519E0012F0295010FE5
:100A30000C941D050295010F02950895577FB1E0B2
:100A4000A8E11C91F1E0E0E0E10F04B105B1008301
:100A50001395103114F40C942E0510E01093180126
:100A6000110F00B1017E102B1093620000E607B950
:100A70000EED06B90895677FB1E0A8E20C9116E08B
:100A8000019F002D003610F40C94470503E60093F7
:100A9000290100E00093280108956F7E09B70D7FBA
:100AA00009BFB1E0A8E20C910F3F29F00C94580562
:100AB00003950093280109B712E0012B09BF08959F
:100AC0004FB750624FBF18954FB760614FBF189531
:100AD0004FB750644FBF18954FB750614FBF18952F
:100AE0004FB750684FBF18954FB760644FBF189508
:080AF0004FB758604FBF189585
:00000001FF
