:020000020000FC
:0C0000000C945C000C944E040C94500412
:040028000C945604DA
:040038000C945404CC
:040040000C945204C6
:040054000C945A04AA
:040074000C9458048C
:1000A000039F250D9949411F010911C161856171A6
:1000B00039FD73FF0E12121300E10EBF0FEF0DBFDB
:1000C00008E90ABB00E80BBB00EE07BB0FEF04BB5F
:1000D00004E010E8012B10E4012B01BB0FEF02B983
:1000E0000EEF0093610003E009BF0FE000936A0088
:1000F00005E003BF08E000BF05E00EBD0FEF10E014
:100100000DBD1CBD05E005BD03E000938A0005E4BC
:1001100007BF04E000937D0000E607B90FED06B9C4
:100120006068789456FD0E94690257FD0E94C202E1
:1001300055FD0E94D20254FD0E94170353FD0E94F8
:100140000C0452FD0E94A90151FD0E94CF0150FDF7
:100150000E94300267FD0E94B70166FD0E94EE001A
:1001600065FD0E94450263FD0E94290464FD0E9412
:100170003B0462FD0E94C30161FD0E94F9028C31C3
:1001800061F0843131F08C3061F0893171F00C9480
:1001900092000E9486010C9492000E9476010C94B9
:1001A00092000E94D9000C9492000E9496010C9437
:1001B000920076FD0C94DE000C94E30080E00E9437
:1001C000E6000E94EC000895706408957F7B089516
:1001D0007062089570610895786008950FEF10EFD0
:1001E00000938900109388006F7B72FF0C942E019E
:1001F000B1E0ACE10C9103950F3F11F00C940201BA
:10020000526000E000931C01B1E0AFE10C910F3FA0
:1002100029F0039500931F010C94220100EC009338
:100220001F01B1E0A0E20C910F3F29F0039500936C
:1002300020010C942201516000EC00931F0109EF92
:1002400000932001B1E0ADE10C9103950F3F11F057
:100250000C942C01606200E000931D01B1E0A2E269
:100260000C9103950F3F11F00C94410100E00093B5
:100270002201B1E0A1E20C9103950F3F51F00C94E3
:100280004501009322010C945001009321010C942C
:1002900050010CEF0093210100E0009322016860FF
:1002A000B1E0A9E20C9103950F3F21F000932901E1
:1002B0000C94690100E000932901B1E0A8E20C91DF
:1002C00003950F3F11F00C946701626000EE0093FC
:1002D0002801B1E0A5E20C9103950F3F11F00C94B9
:1002E0007301646000E000932501089572FF089592
:1002F0000E94E80080E0B1E0ABE00C9103950F3183
:1003000008F00EE100930B015460089572FF089508
:100310000E94E80080E0B1E0ABE00C910A950A3061
:100320008CF70AE000930B015460089580E072FF9F
:100330000C949C010C94A10174600E94EA000C943E
:10034000A8017B7F0E94EC00189819980C94A801D2
:100350000895E1990C94B60100E00FBB0EBBB1E02B
:10036000ABE00C910DBBE29AE19A5B7F0895E199B5
:100370000C94C20100E00FBB0EBBE09A0DB30093DA
:100380000B016F7708956B7FB1E0ACE032E0A30F13
:100390000C91083F10F40C94CE017064089572FF24
:1003A00008955D7FB1E0ABE00C910F3180F40A302D
:1003B00070F0B1E0ACE01C91B1E0ACE031E0A30F33
:1003C0003C91163C20F4103310F00C94E80170645A
:1003D000103848F01058101730F00C94EF011898AE
:1003E000199A0C94F501189A19980E94FA010E9422
:1003F00015020895B1E0ACE00C91B1E0ACE032E060
:10040000A30F1C91011738F00C94060219990C9453
:1004100010020C94130218990C9410020C941302FD
:10042000979A0C94140297980895B1E0ACE00C915F
:10043000B1E0ACE031E0A30F1C91011738F00C944F
:10044000210219990C942B020C942E0218990C94E9
:100450002B020C942E02969A0C942F0296980895D3
:1004600072FF08955E7FB1E0A6E20C91003029F0A2
:100470000695083011F00C943E0200E80093260126
:1004800013B11F70102B13B9089572FF08956F7D7B
:10049000F1E0EEE10081B1E0ACE028E0A20FA00FB6
:1004A0001C91107C129521B1237F212B23B920B1FF
:1004B0002F73102F1295110F110F212B2093620013
:1004C0000395043010F40C94660200E000931E01C2
:1004D00008955F7B00EF02BF76FD0C94790275FDF5
:1004E0000C94850274FD0C94920273FD0C94AA0284
:1004F000089577FF0C947E020C9483020CEF009316
:100500000001706808957F77089577FF0C948A0240
:100510000C948F020CEF00930001706808957F7DAA
:100520007F77089577FF0C9497020C949C020CEF50
:100530000093000170680895B1E0A0E00C910C3FB9
:1005400011F00C94A7020EEF0093000108957F773D
:100550007F7E089577FF0C94AF020C94B4020EEFE7
:100560000093000170680895B1E0A0E00C910E3F87
:1005700011F00C94BF020CEF0093000108957F77F7
:10058000777F08955F77B1E0A0E00C9104BD77FF1D
:100590001895959B0C94CE020C94D002959A1895C0
:1005A0009598189509B70E7F09BF5F7D00E00BBBDA
:1005B00009B30E94EA0208E00BBB09B30E94EA02F9
:1005C00000E10BBB09B30E94EA0208E10BBB09B3CF
:1005D0000C94F102102F1770103009F408951F9138
:1005E0001F91802F00E80BBB09B711E0012B09BF59
:1005F00008956D7F76FD0C9400037E7F0C940803B4
:1006000070FF0C9405030C94080371600C9416039E
:100610007E7FB1E0A7E20C91013028F403950093AE
:1006200027010C94160300E00093270108955F7ED4
:100630000FEF10EF0DBD1CBDB1E0A1E02C91239593
:10064000283011F00C943F0320E00E945503B1E0E4
:10065000A7E20C9170FD0C943D03003011F00130C5
:1006600041F00E949C030E9487030E9477030C9430
:100670003F030E9469030C943F030E94B60320933A
:100680000101B1E0A2E0A20F0C91F0E0E0EAE00F7E
:100690000491213021F0243011F00C9450030E7F8E
:1006A0002295220F28BB05BB0895F0E0E0EA03E1A4
:1006B00000930201009303010093040100930501DC
:1006C00000930601009307010093080100930901BC
:1006D0000895B1E0A4E20C910E94C503102F1F7091
:1006E00010930301007F029500930201089572FFA9
:1006F0000895B1E0ABE00C910E94C503102F1F706C
:1007000010930601007F0295009305010895B1E062
:10071000ACE00C91003820F411E110930701009532
:1007200000580E94C503102F1F7010930901007F0D
:100730000295009308010895B1E0ACE002E0A00F3B
:100740000C91003868F000580E94C503102F1F70EC
:1007500010930301007F0295009302010C94B503EE
:1007600001E1009302010093030108950EE000935C
:10077000020102E1009303010093040100E00093F1
:10078000050102E10093060108950436D8F510E052
:100790000A3014F40C9408040A5013950A3014F427
:1007A0000C9408040A5013950A3014F40C940804AD
:1007B0000A5013950A3014F40C9408040A50139547
:1007C0000A3014F40C9408040A5013950A3014F4F7
:1007D0000C9408040A5013950A3014F40C9408047D
:1007E0000A5013950A3014F40C9408040A50139517
:1007F0000A3014F40C9408040A5013951A3014F4B7
:100800000C94080419E0012F0295010F0C940B04BD
:100810000295010F02950895577FB1E0AAE01C915F
:10082000F1E0ECE0E10F04B105B100831395103164
:1008300014F40C941C0410E010930A01110F00B181
:10084000017E102B1093620000E607B90EED06B989
:100850000895677FB1E0A3E20C9116E0019F002D9F
:10086000003610F40C94350403E60093240100E0F4
:100870000093230108956F7E09B70D7F09BFB1E092
:10088000A3E20C910F3F29F00C94460403950093CA
:10089000230109B712E0012B09BF08955062189592
:1008A00060611895506418955061189550681895B6
:0808B00060641895586018956A
:00000001FF
